{
  "contractName": "Empleados",
  "abi": [
    {
      "constant": true,
      "inputs": [
        {
          "name": "_cuenta",
          "type": "address"
        }
      ],
      "name": "getEmpleadoNombre",
      "outputs": [
        {
          "name": "",
          "type": "string"
        }
      ],
      "payable": false,
      "stateMutability": "view",
      "type": "function"
    },
    {
      "constant": true,
      "inputs": [
        {
          "name": "_cuenta",
          "type": "address"
        }
      ],
      "name": "getEmpleadoNumero",
      "outputs": [
        {
          "name": "",
          "type": "string"
        }
      ],
      "payable": false,
      "stateMutability": "view",
      "type": "function"
    },
    {
      "constant": true,
      "inputs": [],
      "name": "listarEmpleados",
      "outputs": [
        {
          "name": "",
          "type": "address[]"
        }
      ],
      "payable": false,
      "stateMutability": "view",
      "type": "function"
    },
    {
      "constant": true,
      "inputs": [
        {
          "name": "_cuenta",
          "type": "address"
        }
      ],
      "name": "existeEmpleado",
      "outputs": [
        {
          "name": "",
          "type": "bool"
        }
      ],
      "payable": false,
      "stateMutability": "view",
      "type": "function"
    }
  ],
  "bytecode": "0x608060405234801561001057600080fd5b50610757806100206000396000f300608060405260043610610062576000357c0100000000000000000000000000000000000000000000000000000000900463ffffffff1680631eb0a556146100675780632e3eeecb146101235780634548cfde1461018f5780639b3c0a011461024b575b600080fd5b34801561007357600080fd5b506100a8600480360381019080803573ffffffffffffffffffffffffffffffffffffffff1690602001909291905050506102a6565b6040518080602001828103825283818151815260200191508051906020019080838360005b838110156100e85780820151818401526020810190506100cd565b50505050905090810190601f1680156101155780820380516001836020036101000a031916815260200191505b509250505060405180910390f35b34801561012f57600080fd5b50610138610457565b6040518080602001828103825283818151815260200191508051906020019060200280838360005b8381101561017b578082015181840152602081019050610160565b505050509050019250505060405180910390f35b34801561019b57600080fd5b506101d0600480360381019080803573ffffffffffffffffffffffffffffffffffffffff169060200190929190505050610522565b6040518080602001828103825283818151815260200191508051906020019080838360005b838110156102105780820151818401526020810190506101f5565b50505050905090810190601f16801561023d5780820380516001836020036101000a031916815260200191505b509250505060405180910390f35b34801561025757600080fd5b5061028c600480360381019080803573ffffffffffffffffffffffffffffffffffffffff1690602001909291905050506106d3565b604051808215151515815260200191505060405180910390f35b6060813373ffffffffffffffffffffffffffffffffffffffff168173ffffffffffffffffffffffffffffffffffffffff16148061036f57503373ffffffffffffffffffffffffffffffffffffffff166000808373ffffffffffffffffffffffffffffffffffffffff1673ffffffffffffffffffffffffffffffffffffffff16815260200190815260200160002060030160009054906101000a900473ffffffffffffffffffffffffffffffffffffffff1673ffffffffffffffffffffffffffffffffffffffff16145b15610451576000808473ffffffffffffffffffffffffffffffffffffffff1673ffffffffffffffffffffffffffffffffffffffff1681526020019081526020016000206001018054600181600116156101000203166002900480601f0160208091040260200160405190810160405280929190818152602001828054600181600116156101000203166002900480156104495780601f1061041e57610100808354040283529160200191610449565b820191906000526020600020905b81548152906001019060200180831161042c57829003601f168201915b505050505091505b50919050565b6060600160003373ffffffffffffffffffffffffffffffffffffffff1673ffffffffffffffffffffffffffffffffffffffff16815260200190815260200160002080548060200260200160405190810160405280929190818152602001828054801561051857602002820191906000526020600020905b8160009054906101000a900473ffffffffffffffffffffffffffffffffffffffff1673ffffffffffffffffffffffffffffffffffffffff16815260200190600101908083116104ce575b5050505050905090565b6060813373ffffffffffffffffffffffffffffffffffffffff168173ffffffffffffffffffffffffffffffffffffffff1614806105eb57503373ffffffffffffffffffffffffffffffffffffffff166000808373ffffffffffffffffffffffffffffffffffffffff1673ffffffffffffffffffffffffffffffffffffffff16815260200190815260200160002060030160009054906101000a900473ffffffffffffffffffffffffffffffffffffffff1673ffffffffffffffffffffffffffffffffffffffff16145b156106cd576000808473ffffffffffffffffffffffffffffffffffffffff1673ffffffffffffffffffffffffffffffffffffffff1681526020019081526020016000206002018054600181600116156101000203166002900480601f0160208091040260200160405190810160405280929190818152602001828054600181600116156101000203166002900480156106c55780601f1061069a576101008083540402835291602001916106c5565b820191906000526020600020905b8154815290600101906020018083116106a857829003601f168201915b505050505091505b50919050565b60008060008373ffffffffffffffffffffffffffffffffffffffff1673ffffffffffffffffffffffffffffffffffffffff16815260200190815260200160002060030160149054906101000a900460ff1690509190505600a165627a7a7230582006f1325ec78aa15e5cd7d043155812eae7377f90dba9eda75ca296acc49084770029",
  "source": "pragma solidity ^0.4.25;\n\ncontract Empleados {\n    \n    struct Empleado {\n      address cuenta;\n      string nombre;\n      string numEmpleado;\n      address empresa; // para realizar comprobaciones de pertenencia a una empresa\n      bool isValue;\n    }\n    \n\n    // Para poder acceder rapidamente a la informacion de un empleado (de cualquier empresa)\n    mapping(address => Empleado) empleados;\n    // Cada empresa tiene una lista con las direcciones de sus empleados\n    mapping(address => address[]) direccionesEmpleadosEmpresa;\n    \n    \n    /*\n    * Comprueba que el empleado actualmente este trabajando en la empresa que llama a la funcion (msg.sender)\n    */\n    modifier empleadoTrabajaEnEstaEmpresa (address _empleado){\n        if(empleados[_empleado].empresa == msg.sender){\n            _;\n        }\n    }\n    \n    \n    /*\n    * Comprueba que el empleado es quien quiere acceder a su propia informacion o es su empresa\n    */\n    modifier tienePermisosPrivacidad (address _empleado){\n        if(_empleado == msg.sender || empleados[_empleado].empresa == msg.sender){\n            _;\n        }\n    }\n    \n    \n    /*\n    * Comprueba que un empleado actualmente este trabajando en la misma empresa que llama a la funcion (msg.sender)\n    */\n    modifier esCompanero (address _to){\n        if(empleados[_to].empresa == empleados[msg.sender].empresa){\n            _;\n        }\n    }\n    \n    \n    /*\n    * Consultar el nombre de un empleado de la propia empresa\n    */\n    function getEmpleadoNombre(address _cuenta) public view tienePermisosPrivacidad(_cuenta) returns(string){\n            return(empleados[_cuenta].nombre);\n    }\n    \n    \n    /*\n    * Consultar el numero de empleado de un empleado de la propia empresa\n    */\n    function getEmpleadoNumero(address _cuenta) public view tienePermisosPrivacidad(_cuenta) returns(string){\n            return(empleados[_cuenta].numEmpleado);\n    }\n    \n    \n    /*\n    * Consultar la lista de empleados de la empresa que llama\n    */\n    function listarEmpleados() public view returns(address[]){\n        return direccionesEmpleadosEmpresa[msg.sender];\n    }\n    \n \n    /*\n    * Comprobar si existe el empleado en el sistema a partir de una direccion valida\n    */\n    function existeEmpleado(address _cuenta) public view returns (bool){\n        return (empleados[_cuenta].isValue);\n    }\n    \n    \n\n\n\n    \n}\n",
  "sourcePath": "/home/maria/Alastria-TokensCorporativos-TFE/contracts/Empleados.sol",
  "compiler": {
    "name": "solc",
    "version": "0.4.25+commit.59dbf8f1.Emscripten.clang"
  },
  "schemaVersion": "2.0.2",
  "updatedAt": "2019-03-24T14:55:18.840Z"
}