{
  "contractName": "Empleados",
  "abi": [
    {
      "constant": true,
      "inputs": [
        {
          "name": "_cuenta",
          "type": "address"
        }
      ],
      "name": "getEmpleadoInfo",
      "outputs": [
        {
          "name": "",
          "type": "string"
        },
        {
          "name": "",
          "type": "string"
        },
        {
          "name": "",
          "type": "address"
        }
      ],
      "payable": false,
      "stateMutability": "view",
      "type": "function"
    },
    {
      "constant": true,
      "inputs": [],
      "name": "listarEmpleados",
      "outputs": [
        {
          "name": "",
          "type": "address[]"
        }
      ],
      "payable": false,
      "stateMutability": "view",
      "type": "function"
    }
  ],
  "bytecode": "0x608060405234801561001057600080fd5b506105d5806100206000396000f30060806040526004361061004c576000357c0100000000000000000000000000000000000000000000000000000000900463ffffffff1680631a83e402146100515780632e3eeecb146101ac575b600080fd5b34801561005d57600080fd5b50610092600480360381019080803573ffffffffffffffffffffffffffffffffffffffff169060200190929190505050610218565b6040518080602001806020018473ffffffffffffffffffffffffffffffffffffffff1673ffffffffffffffffffffffffffffffffffffffff168152602001838103835286818151815260200191508051906020019080838360005b838110156101085780820151818401526020810190506100ed565b50505050905090810190601f1680156101355780820380516001836020036101000a031916815260200191505b50838103825285818151815260200191508051906020019080838360005b8381101561016e578082015181840152602081019050610153565b50505050905090810190601f16801561019b5780820380516001836020036101000a031916815260200191505b509550505050505060405180910390f35b3480156101b857600080fd5b506101c16104de565b6040518080602001828103825283818151815260200191508051906020019060200280838360005b838110156102045780820151818401526020810190506101e9565b505050509050019250505060405180910390f35b6060806000833373ffffffffffffffffffffffffffffffffffffffff166000808373ffffffffffffffffffffffffffffffffffffffff1673ffffffffffffffffffffffffffffffffffffffff16815260200190815260200160002060030160009054906101000a900473ffffffffffffffffffffffffffffffffffffffff1673ffffffffffffffffffffffffffffffffffffffff1614156104d6576000808673ffffffffffffffffffffffffffffffffffffffff1673ffffffffffffffffffffffffffffffffffffffff1681526020019081526020016000206001016000808773ffffffffffffffffffffffffffffffffffffffff1673ffffffffffffffffffffffffffffffffffffffff1681526020019081526020016000206002016000808873ffffffffffffffffffffffffffffffffffffffff1673ffffffffffffffffffffffffffffffffffffffff16815260200190815260200160002060000160009054906101000a900473ffffffffffffffffffffffffffffffffffffffff16828054600181600116156101000203166002900480601f01602080910402602001604051908101604052809291908181526020018280546001816001161561010002031660029004801561042c5780601f106104015761010080835404028352916020019161042c565b820191906000526020600020905b81548152906001019060200180831161040f57829003601f168201915b50505050509250818054600181600116156101000203166002900480601f0160208091040260200160405190810160405280929190818152602001828054600181600116156101000203166002900480156104c85780601f1061049d576101008083540402835291602001916104c8565b820191906000526020600020905b8154815290600101906020018083116104ab57829003601f168201915b505050505091509350935093505b509193909250565b6060600160003373ffffffffffffffffffffffffffffffffffffffff1673ffffffffffffffffffffffffffffffffffffffff16815260200190815260200160002080548060200260200160405190810160405280929190818152602001828054801561059f57602002820191906000526020600020905b8160009054906101000a900473ffffffffffffffffffffffffffffffffffffffff1673ffffffffffffffffffffffffffffffffffffffff1681526020019060010190808311610555575b50505050509050905600a165627a7a7230582085b86dc958a067a7d8db34ee5d2712e26a9c9eaabd241f7c970f96199f1b00050029",
  "source": "pragma solidity ^0.4.25;\n\ncontract Empleados {\n    \n    struct Empleado {\n      address cuenta;\n      string nombre;\n      string numEmpleado;\n      address empresa; // para realizar comprobaciones de privacidad\n      //uint256 tokens; ????\n    }\n    \n\n    // Para poder acceder rapidamente a la informacion de un empleado (de cualquier empresa)\n    mapping(address => Empleado) empleados;\n    // Cada empresa tiene una lista con las direcciones de sus empleados\n    mapping(address => address[]) direccionesEmpleadosEmpresa;\n    \n    \n    /*\n    * Comprueba que el empleado actualmente este trabajando en la empresa que llama a la funcion (msg.sender)\n    */\n    modifier empleadoTrabajaEnEstaEmpresa (address _empleado){\n        if(empleados[_empleado].empresa == msg.sender){\n            _;\n        }\n    }\n    \n    \n    /*\n    * Consultar la info de un empleado de la empresa\n    */\n    function getEmpleadoInfo(address _cuenta) public view empleadoTrabajaEnEstaEmpresa(_cuenta) returns(string, string, address){\n            return(empleados[_cuenta].nombre, empleados[_cuenta].numEmpleado, empleados[_cuenta].cuenta);\n    }\n    \n    \n    /*\n    * Consultar la lista de empleados de la empresa que llama\n    */\n    function listarEmpleados() public view returns (address[]){\n        return direccionesEmpleadosEmpresa[msg.sender];\n    }\n    \n \n    \n\n\n\n    \n}\n",
  "sourcePath": "/home/maria/truffle-tfe/contracts/Empleados.sol",
  "compiler": {
    "name": "solc",
    "version": "0.4.25+commit.59dbf8f1.Emscripten.clang"
  },
  "schemaVersion": "2.0.2",
  "updatedAt": "2019-03-23T15:32:55.125Z"
}