{
  "contractName": "Empresas",
  "abi": [
    {
      "constant": true,
      "inputs": [],
      "name": "listarEmpresas",
      "outputs": [
        {
          "name": "",
          "type": "address[]"
        }
      ],
      "payable": false,
      "stateMutability": "view",
      "type": "function"
    },
    {
      "constant": true,
      "inputs": [
        {
          "name": "_cuenta",
          "type": "address"
        }
      ],
      "name": "getEmpresaNombre",
      "outputs": [
        {
          "name": "",
          "type": "string"
        }
      ],
      "payable": false,
      "stateMutability": "view",
      "type": "function"
    },
    {
      "constant": true,
      "inputs": [
        {
          "name": "_cuenta",
          "type": "address"
        }
      ],
      "name": "getEmpresaCIF",
      "outputs": [
        {
          "name": "",
          "type": "string"
        }
      ],
      "payable": false,
      "stateMutability": "view",
      "type": "function"
    },
    {
      "constant": true,
      "inputs": [
        {
          "name": "_cuenta",
          "type": "address"
        }
      ],
      "name": "existeEmpresa",
      "outputs": [
        {
          "name": "",
          "type": "bool"
        }
      ],
      "payable": false,
      "stateMutability": "view",
      "type": "function"
    }
  ],
  "bytecode": "0x608060405234801561001057600080fd5b5061062c806100206000396000f300608060405260043610610062576000357c0100000000000000000000000000000000000000000000000000000000900463ffffffff16806327be489014610067578063457f27951461012357806357bfcbd51461018f578063df100f64146101ea575b600080fd5b34801561007357600080fd5b506100a8600480360381019080803573ffffffffffffffffffffffffffffffffffffffff1690602001909291905050506102a6565b6040518080602001828103825283818151815260200191508051906020019080838360005b838110156100e85780820151818401526020810190506100cd565b50505050905090810190601f1680156101155780820380516001836020036101000a031916815260200191505b509250505060405180910390f35b34801561012f57600080fd5b506101386103e0565b6040518080602001828103825283818151815260200191508051906020019060200280838360005b8381101561017b578082015181840152602081019050610160565b505050509050019250505060405180910390f35b34801561019b57600080fd5b506101d0600480360381019080803573ffffffffffffffffffffffffffffffffffffffff16906020019092919050505061046e565b604051808215151515815260200191505060405180910390f35b3480156101f657600080fd5b5061022b600480360381019080803573ffffffffffffffffffffffffffffffffffffffff1690602001909291905050506104c6565b6040518080602001828103825283818151815260200191508051906020019080838360005b8381101561026b578082015181840152602081019050610250565b50505050905090810190601f1680156102985780820380516001836020036101000a031916815260200191505b509250505060405180910390f35b6060816000808273ffffffffffffffffffffffffffffffffffffffff1673ffffffffffffffffffffffffffffffffffffffff16815260200190815260200160002060030160009054906101000a900460ff16156103da576000808473ffffffffffffffffffffffffffffffffffffffff1673ffffffffffffffffffffffffffffffffffffffff1681526020019081526020016000206001018054600181600116156101000203166002900480601f0160208091040260200160405190810160405280929190818152602001828054600181600116156101000203166002900480156103d25780601f106103a7576101008083540402835291602001916103d2565b820191906000526020600020905b8154815290600101906020018083116103b557829003601f168201915b505050505091505b50919050565b6060600180548060200260200160405190810160405280929190818152602001828054801561046457602002820191906000526020600020905b8160009054906101000a900473ffffffffffffffffffffffffffffffffffffffff1673ffffffffffffffffffffffffffffffffffffffff168152602001906001019080831161041a575b5050505050905090565b60008060008373ffffffffffffffffffffffffffffffffffffffff1673ffffffffffffffffffffffffffffffffffffffff16815260200190815260200160002060030160009054906101000a900460ff169050919050565b6060816000808273ffffffffffffffffffffffffffffffffffffffff1673ffffffffffffffffffffffffffffffffffffffff16815260200190815260200160002060030160009054906101000a900460ff16156105fa576000808473ffffffffffffffffffffffffffffffffffffffff1673ffffffffffffffffffffffffffffffffffffffff1681526020019081526020016000206002018054600181600116156101000203166002900480601f0160208091040260200160405190810160405280929190818152602001828054600181600116156101000203166002900480156105f25780601f106105c7576101008083540402835291602001916105f2565b820191906000526020600020905b8154815290600101906020018083116105d557829003601f168201915b505050505091505b509190505600a165627a7a7230582036d6cadca5ed1febfba0cfd8952dabd2c2d4373a3cfb1fc065660f16ee34787f0029",
  "source": "pragma solidity ^0.4.25;\n\ncontract Empresas {\n    \n    struct Empresa {\n      address cuenta;\n      string nombre;\n      string cif;\n      bool isValue; // para comprobar que existe la empresa\n    }\n    \n    // Para poder acceder rapidamente a la informacion de una empresa a partir de su direccion\n    mapping(address => Empresa) empresas;\n    // Para obtener un listado por el que iterar con todas las direcciones de las empresas existentes\n    address[] empresasList;\n    \n    \n    /*\n    * Para comprobar que el msg.sender es una empresa existente en el sistema\n    */\n    modifier esEmpresaValida(address _cuenta){\n        if(empresas[_cuenta].isValue){\n            _;\n        }\n    }\n    \n    \n    /*\n    * Para obtener una lista con todas las direcciones de empresas en la que iterar\n    */\n    function listarEmpresas() public view returns (address[]) {\n        return empresasList;\n    }\n    \n    \n    /*\n    * Para obtener la informacion del nombre de una empresa a partir de su direccion\n    */\n    function getEmpresaNombre(address _cuenta) public view esEmpresaValida(_cuenta) returns (string){\n        return (empresas[_cuenta].nombre);\n    }\n    \n    \n    /*\n    * Para obtener la informacion del cif de una empresa a partir de su direccion\n    */\n    function getEmpresaCIF(address _cuenta) public view esEmpresaValida(_cuenta) returns (string){\n        return (empresas[_cuenta].cif);\n    }\n    \n    \n     /*\n    * Comprobar si existe una empresa en el sistema a partir de una direccion valida\n    */\n    function existeEmpresa(address _cuenta) public view returns (bool){\n        return (empresas[_cuenta].isValue);\n    }\n    \n}",
  "sourcePath": "/home/maria/Alastria-TokensCorporativos-TFE/contracts/Empresas.sol",
  "compiler": {
    "name": "solc",
    "version": "0.4.25+commit.59dbf8f1.Emscripten.clang"
  },
  "schemaVersion": "2.0.2",
  "updatedAt": "2019-03-24T14:55:18.841Z"
}