{
  "contractName": "Empresas",
  "abi": [
    {
      "constant": true,
      "inputs": [],
      "name": "listarEmpresas",
      "outputs": [
        {
          "name": "",
          "type": "address[]"
        }
      ],
      "payable": false,
      "stateMutability": "view",
      "type": "function"
    },
    {
      "constant": true,
      "inputs": [
        {
          "name": "_cuenta",
          "type": "address"
        }
      ],
      "name": "getEmpresaInfo",
      "outputs": [
        {
          "name": "",
          "type": "string"
        },
        {
          "name": "",
          "type": "string"
        },
        {
          "name": "",
          "type": "address"
        }
      ],
      "payable": false,
      "stateMutability": "view",
      "type": "function"
    }
  ],
  "bytecode": "0x608060405234801561001057600080fd5b506105c3806100206000396000f30060806040526004361061004c576000357c0100000000000000000000000000000000000000000000000000000000900463ffffffff168063457f2795146100515780639b5904a6146100bd575b600080fd5b34801561005d57600080fd5b50610066610218565b6040518080602001828103825283818151815260200191508051906020019060200280838360005b838110156100a957808201518184015260208101905061008e565b505050509050019250505060405180910390f35b3480156100c957600080fd5b506100fe600480360381019080803573ffffffffffffffffffffffffffffffffffffffff1690602001909291905050506102a6565b6040518080602001806020018473ffffffffffffffffffffffffffffffffffffffff1673ffffffffffffffffffffffffffffffffffffffff168152602001838103835286818151815260200191508051906020019080838360005b83811015610174578082015181840152602081019050610159565b50505050905090810190601f1680156101a15780820380516001836020036101000a031916815260200191505b50838103825285818151815260200191508051906020019080838360005b838110156101da5780820151818401526020810190506101bf565b50505050905090810190601f1680156102075780820380516001836020036101000a031916815260200191505b509550505050505060405180910390f35b6060600180548060200260200160405190810160405280929190818152602001828054801561029c57602002820191906000526020600020905b8160009054906101000a900473ffffffffffffffffffffffffffffffffffffffff1673ffffffffffffffffffffffffffffffffffffffff1681526020019060010190808311610252575b5050505050905090565b60608060008060008573ffffffffffffffffffffffffffffffffffffffff1673ffffffffffffffffffffffffffffffffffffffff16815260200190815260200160002060030160009054906101000a900460ff16151561036e576040517f08c379a00000000000000000000000000000000000000000000000000000000081526004018080602001828103825260138152602001807f446972656363696f6e206e6f2076616c6964610000000000000000000000000081525060200191505060405180910390fd5b6000808573ffffffffffffffffffffffffffffffffffffffff1673ffffffffffffffffffffffffffffffffffffffff1681526020019081526020016000206001016000808673ffffffffffffffffffffffffffffffffffffffff1673ffffffffffffffffffffffffffffffffffffffff1681526020019081526020016000206002016000808773ffffffffffffffffffffffffffffffffffffffff1673ffffffffffffffffffffffffffffffffffffffff16815260200190815260200160002060000160009054906101000a900473ffffffffffffffffffffffffffffffffffffffff16828054600181600116156101000203166002900480601f0160208091040260200160405190810160405280929190818152602001828054600181600116156101000203166002900480156104e75780601f106104bc576101008083540402835291602001916104e7565b820191906000526020600020905b8154815290600101906020018083116104ca57829003601f168201915b50505050509250818054600181600116156101000203166002900480601f0160208091040260200160405190810160405280929190818152602001828054600181600116156101000203166002900480156105835780601f1061055857610100808354040283529160200191610583565b820191906000526020600020905b81548152906001019060200180831161056657829003601f168201915b5050505050915092509250925091939092505600a165627a7a723058206e7c78ce95b75160e5e558bd914b19143110c774281077fe1a76a6d86e4889660029",
  "source": "pragma solidity ^0.4.25;\n\ncontract Empresas {\n    \n    struct Empresa {\n      address cuenta;\n      string nombre;\n      string cif;\n      bool isValue; // para comprobar que existe la empresa\n    }\n    \n    // Para poder acceder rapidamente a la informacion de una empresa a partir de su direccion\n    mapping(address => Empresa) empresas;\n    // Para obtener un listado por el que iterar con todas las direcciones de las empresas existentes\n    address[] empresasList;\n    \n    \n    /*\n    * Para comprobar que el msg.sender es una empresa existente en el sistema\n    */\n    modifier esEmpresaValida(address _cuenta){\n        if(empresas[_cuenta].isValue){\n            _;\n        }\n    }\n    \n    \n    /*\n    * Para obtener una lista con todas las direcciones de empresas en la que iterar\n    */\n    function listarEmpresas() public view returns (address[]) {\n        return empresasList;\n    }\n    \n    \n    /*\n    * Para obtener la informacion completa de una empresa a partir de su direccion\n    */\n    function getEmpresaInfo(address _cuenta) public view returns (string, string, address){\n        require(empresas[_cuenta].isValue, \"Direccion no valida\");\n        return (empresas[_cuenta].nombre, empresas[_cuenta].cif, empresas[_cuenta].cuenta);\n    }\n    \n}",
  "sourcePath": "/home/maria/truffle-tfe/contracts/Empresas.sol",
  "compiler": {
    "name": "solc",
    "version": "0.4.25+commit.59dbf8f1.Emscripten.clang"
  },
  "schemaVersion": "2.0.2",
  "updatedAt": "2019-03-23T14:44:55.625Z"
}